{
  "_format": "hh-sol-artifact-1",
  "contractName": "Upload",
  "sourceName": "src/backend/contracts/Upload.sol",
  "abi": [
    {
      "anonymous": false,
      "inputs": [
        {
          "indexed": false,
          "internalType": "uint256",
          "name": "itemId",
          "type": "uint256"
        },
        {
          "indexed": true,
          "internalType": "address",
          "name": "owner",
          "type": "address"
        }
      ],
      "name": "stored",
      "type": "event"
    },
    {
      "inputs": [
        {
          "internalType": "uint256",
          "name": "id",
          "type": "uint256"
        }
      ],
      "name": "getTokenURI",
      "outputs": [
        {
          "internalType": "string",
          "name": "",
          "type": "string"
        }
      ],
      "stateMutability": "view",
      "type": "function"
    },
    {
      "inputs": [
        {
          "internalType": "uint256",
          "name": "",
          "type": "uint256"
        }
      ],
      "name": "tokenCID",
      "outputs": [
        {
          "internalType": "string",
          "name": "",
          "type": "string"
        }
      ],
      "stateMutability": "view",
      "type": "function"
    },
    {
      "inputs": [],
      "name": "tokenId",
      "outputs": [
        {
          "internalType": "uint256",
          "name": "",
          "type": "uint256"
        }
      ],
      "stateMutability": "view",
      "type": "function"
    },
    {
      "inputs": [
        {
          "internalType": "string",
          "name": "_CID",
          "type": "string"
        }
      ],
      "name": "uploadImage",
      "outputs": [
        {
          "internalType": "uint256",
          "name": "",
          "type": "uint256"
        }
      ],
      "stateMutability": "nonpayable",
      "type": "function"
    }
  ],
  "bytecode": "0x608060405234801561001057600080fd5b5061074a806100206000396000f3fe608060405234801561001057600080fd5b506004361061004c5760003560e01c806317d70f7c146100515780633bb3a24d1461006f5780636972fbb81461009f578063e740c8a0146100cf575b600080fd5b6100596100ff565b60405161006691906104da565b60405180910390f35b61008960048036038101906100849190610447565b610105565b60405161009691906104b8565b60405180910390f35b6100b960048036038101906100b49190610447565b6101aa565b6040516100c691906104b8565b60405180910390f35b6100e960048036038101906100e49190610406565b61024a565b6040516100f691906104da565b60405180910390f35b60005481565b6060600160008381526020019081526020016000208054610125906105b3565b80601f0160208091040260200160405190810160405280929190818152602001828054610151906105b3565b801561019e5780601f106101735761010080835404028352916020019161019e565b820191906000526020600020905b81548152906001019060200180831161018157829003601f168201915b50505050509050919050565b600160205280600052604060002060009150905080546101c9906105b3565b80601f01602080910402602001604051908101604052809291908181526020018280546101f5906105b3565b80156102425780601f1061021757610100808354040283529160200191610242565b820191906000526020600020905b81548152906001019060200180831161022557829003601f168201915b505050505081565b600080600081548092919061025e90610616565b9190505550816001600080548152602001908152602001600020908051906020019061028b9291906102e6565b503373ffffffffffffffffffffffffffffffffffffffff167fd1a892b61c52509acb3ae051b0e86554d4d984e96c83e1fbc15e09da58af8bc66000546040516102d491906104da565b60405180910390a26000549050919050565b8280546102f2906105b3565b90600052602060002090601f016020900481019282610314576000855561035b565b82601f1061032d57805160ff191683800117855561035b565b8280016001018555821561035b579182015b8281111561035a57825182559160200191906001019061033f565b5b509050610368919061036c565b5090565b5b8082111561038557600081600090555060010161036d565b5090565b600061039c6103978461051a565b6104f5565b9050828152602081018484840111156103b457600080fd5b6103bf848285610571565b509392505050565b600082601f8301126103d857600080fd5b81356103e8848260208601610389565b91505092915050565b600081359050610400816106fd565b92915050565b60006020828403121561041857600080fd5b600082013567ffffffffffffffff81111561043257600080fd5b61043e848285016103c7565b91505092915050565b60006020828403121561045957600080fd5b6000610467848285016103f1565b91505092915050565b600061047b8261054b565b6104858185610556565b9350610495818560208601610580565b61049e816106ec565b840191505092915050565b6104b281610567565b82525050565b600060208201905081810360008301526104d28184610470565b905092915050565b60006020820190506104ef60008301846104a9565b92915050565b60006104ff610510565b905061050b82826105e5565b919050565b6000604051905090565b600067ffffffffffffffff821115610535576105346106bd565b5b61053e826106ec565b9050602081019050919050565b600081519050919050565b600082825260208201905092915050565b6000819050919050565b82818337600083830152505050565b60005b8381101561059e578082015181840152602081019050610583565b838111156105ad576000848401525b50505050565b600060028204905060018216806105cb57607f821691505b602082108114156105df576105de61068e565b5b50919050565b6105ee826106ec565b810181811067ffffffffffffffff8211171561060d5761060c6106bd565b5b80604052505050565b600061062182610567565b91507fffffffffffffffffffffffffffffffffffffffffffffffffffffffffffffffff8214156106545761065361065f565b5b600182019050919050565b7f4e487b7100000000000000000000000000000000000000000000000000000000600052601160045260246000fd5b7f4e487b7100000000000000000000000000000000000000000000000000000000600052602260045260246000fd5b7f4e487b7100000000000000000000000000000000000000000000000000000000600052604160045260246000fd5b6000601f19601f8301169050919050565b61070681610567565b811461071157600080fd5b5056fea2646970667358221220dd4f0a27ba788cae9134464f3b3cf2d59ebf3d3a6020bd6938fd08237ba0066564736f6c63430008040033",
  "linkReferences": {},
  "deployedLinkReferences": {}
}